:020000040800F2
:100000000000022095170008190800081B080008C6
:100010001D0800081F080008210800080000000053
:10002000000000000000000000000000230800089D
:10003000250800080000000027080008290800081B
:10004000E5170008E5170008E5170008E5170008A0
:10005000E5170008E5170008E5170008E517000890
:10006000E5170008E5170008E5170008E517000880
:10007000E5170008E5170008E5170008E517000870
:10008000E5170008E5170008E5170008E517000860
:10009000E5170008E5170008E5170008E517000850
:1000A000E5170008E5170008E5170008E517000840
:1000B000E5170008E5170008E5170008E517000830
:1000C000E5170008E5170008E5170008E517000820
:1000D000E5170008E5170008E5170008E517000810
:1000E000E5170008E5170008E5170008E517000800
:1000F000E5170008E5170008E5170008E5170008F0
:10010000E5170008E5170008E5170008E5170008DF
:10011000E5170008E5170008E5170008E5170008CF
:10012000E5170008E5170008E5170008E5170008BF
:10013000E5170008E5170008E5170008E5170008AF
:10014000E5170008E5170008E5170008E51700089F
:10015000E5170008E5170008E5170008E51700088F
:10016000E5170008E5170008E5170008E51700087F
:10017000E5170008E5170008E51700080000000073
:08018000E5170008E51700086F
:100188000348044B834202D0034B03B1184770471E
:100198000C0000200C000020000000000548064B61
:1001A8001B1AD90F01EBA301491002D0034B03B16D
:1001B800184770470C0000200C00002000000000C9
:1001C80010B5064C237843B9FFF7DAFF044B13B197
:1001D8000448AFF300800123237010BD0C000020F9
:1001E800000000004018000808B5044B1BB1044982
:1001F8000448AFF30080BDE80840CFE700000000E6
:100208001000002040180008034613F8012B002AAC
:10021800FBD1181A0138704753B94AB9002908BFE9
:1002280000281CBF4FF0FF314FF0FF3000F09CB9A1
:10023800ADF1080C6DE904CE00F006F8DDF804E035
:10024800DDE9022304B070472DE9F04782B0064685
:10025800DDF828E00846B4460D46002B4ED18A4208
:1002680014466DD9B2FA82F242B1C2F12003954028
:1002780026FA03F394401D4306FA02FC260CA7B2A3
:10028800B5FBF6F14FEA1C4306FB115543EA05435B
:1002980001FB07F0984209D9E31801F1FF3580F016
:1002A8000381984240F20081023923441B1A1FFA45
:1002B8008CFCB3FBF6F006FB10334CEA034C00FB56
:1002C80007F363450AD914EB0C0C00F1FF3580F0F5
:1002D800ED80634540F2EA80A444023840EA0140D8
:1002E800ACEB030C0021BEF1000F04D02CFA02F392
:1002F8000022CEE9003202B0BDE8F0878B4209D96E
:10030800BEF1000F01D0CEE900610021084602B01D
:10031800BDE8F087B3FA83F1174600294DD183422F
:1003280002D3B24200F20F81B6EB070C60EB030375
:1003380001201D46BEF1000FDDD0CEE900C5DAE789
:10034800002A00F098801A46B4FA84F3002B40F093
:10035800AF800B1B270CA6B20121B3FBF7F54FEAC0
:100368001C4007FB153340EA034306FB05F8984594
:1003780007D9E31805F1FF3002D2984500F2E8806A
:100388000546A3EB08031FFA8CFCB3FBF7F007FB49
:1003980010334CEA034C06FB00F3634508D914EB11
:1003A8000C0C00F1FF3602D2634500F2CE803046D5
:1003B800ACEB030C40EA054095E7C1F120058B4002
:1003C80022FA05FC4CEA030C00FA01F426FA05F3BC
:1003D800E84002FA01F943EA04084FEA1C4206FA27
:1003E80001FAB0FBF2F71FFA8CF602FB17004FEA8E
:1003F800184444EA004407FB06F0A0420AD91CEB63
:10040800040407F1FF3380F09C80A04240F29980F9
:10041800023F6444241A1FFA88F3B4FBF2F002FB8B
:10042800104443EA044300FB06F69E4209D91CEB3C
:10043800030300F1FF3480F082809E427FD90238A6
:10044800634440EA0740A0FB09749B1BA3423E4655
:10045800A04664D361D0BEF1000F0AD0BAEB060201
:1004680063EB080303FA05F5CA401543CB40CEE910
:10047800005300213FE7730843EAC1734A08190C87
:1004880041EA02414FEAC67C9BB2B2FBF4F0264631
:10049800A04627461F2243EA0143B1FBF4F1A3EB30
:1004A800080341EA004158E72946FFE6284615E7D0
:1004B8001A46C3F120019C4026FA01F320FA01F103
:1004C80090400343270C06FA02FCB1FBF7F0A6B2F2
:1004D80007FB1015190C41EA054100FB06F58D4292
:1004E8003BD9611801D28D4220D8491B0138B1FB94
:1004F800F7F5019505FB06F8019D9BB207FB151161
:1005080043EA0143434526D2E31805F1FF31C6D239
:100518004345C4D2A91E2344C1E7BA459BD2B7EBD1
:10052800090664EB0C040138A04694E7651B2944CE
:100538000238B1FBF7F5019505FB06F8DCE7204624
:100548007FE71F4666E70846F4E6A44402382FE72B
:10055800023D234415E70199A1E7491BB1FBF7F5D3
:10056800019505FB06F8C7E7704700BF2DE9F04184
:100578008AB005AD0024059406940794089409945C
:1005880000942E4B1A6B42F010021A631A6B02F099
:1005980010020092009A01941A6B42F080021A63CA
:1005A8001A6B02F080020192019A02941A6B42F0CF
:1005B80001021A631A6B02F001020292029A039472
:1005C8001A6B42F004021A631A6B02F004020392D7
:1005D800039A04941A6B42F002021A631B6B03F02D
:1005E80002030493049BDFF860800122082140463F
:1005F80000F0FAFD124F01223021384600F0F4FDD8
:100608000823059301260696079408942946404630
:1006180000F0E6FC302305930696079408942946D3
:10062800384600F0DDFC05960694079429460548EF
:1006380000F0D6FC0AB0BDE8F08100BF00380240E7
:1006480000080240000402400010024072B6FEE7B3
:1006580008B50A480A4B03604FF4E13343600023AE
:100668008360C36003610C2242618361C36100F04F
:1006780097FF00B908BDFFF7E9FF00BFB0000020F1
:100688000044004008B50A480A4B03604FF4E133C0
:10069800436000238360C36003610C22426183616D
:1006A800C36100F07DFF00B908BDFFF7CFFF00BFB1
:1006B800680000200048004008B50D480D4B036055
:1006C8004FF48273436000238360C3600361436116
:1006D8004FF400728261C3610362436283620A233A
:1006E800C36200F0F3FF00B908BDFFF7AFFF00BF1A
:1006F800F80000200030014010B594B008AC30225A
:100708000021204601F06BF800230393049305931E
:100718000693079301931F4A116C41F080511164AD
:10072800126C02F080520192019A02931A4A1168DF
:1007380041F480411160126802F480420292029AE8
:100748000222089201210B9110210C910E920F9315
:1007580008231093A823119312920423139320467D
:1007680000F016F988B90F23039302230493059028
:100778004FF4A05306934FF480530793052103A821
:1007880000F058FB18B914B010BDFFF75FFFFFF772
:100798005DFF00BF003802400070004008B500F05F
:1007A800BDFDFFF7A9FFFFF7E1FEFFF751FFFFF7D8
:1007B80069FFFFF781FF124DAC46124C0FCCACE835
:1007C8000F000FCCACE80F0094E803008CE803009E
:1007D8002846FFF719FD642382B229460A4800F02B
:1007E8000FFF2846FFF710FD642382B22946074809
:1007F80000F006FF4FF47A7000F0BCFDDBE700BFA5
:100808002800002058180008B000002068000020C8
:10081800FEE7FEE7FEE7FEE7FEE770477047704732
:1008280008B500F095FD08BD82B0002100910B4B82
:100838005A6C42F480425A645A6C02F48042009224
:10084800009A01911A6C42F080521A641B6C03F0F2
:1008580080530193019B02B0704700BF00380240EB
:1008680000B589B000230393049305930693079377
:100878000268144B9A4201D009B000BD00210191D1
:1008880003F584335A6C42F480525A645A6C02F469
:1008980080520192019A02911A6B42F001021A6386
:1008A8001B6B03F001030293029BE02303930223D3
:1008B8000493032306930523079303A9024800F032
:1008C8008FFBD9E7003001400000024000B58BB033
:1008D8000023059306930793089309930368274A0F
:1008E800934204D0264A934224D00BB000BD002185
:1008F8000191244B1A6C42F400321A641A6C02F407
:1009080000320192019A02911A6B42F001021A63B5
:100918001B6B03F001030293029B0C230593022334
:100928000693032308930723099305A9164800F0A3
:1009380057FBDAE700210391124B1A6C42F480222C
:100948001A641A6C02F480220392039A04911A6BB7
:1009580042F002021A631B6B03F002030493049B28
:100968004FF4406305930223069303230893072358
:10097800099305A9054800F033FBB6E70044004099
:1009880000480040003802400000024000040240D5
:10099800002800F0E28170B582B00446036813F0C5
:1009A800010F3BD09B4B9B6803F00C03042B2CD00E
:1009B800984B9B6803F00C03082B21D06368B3F5B0
:1009C800803F4FD0B3F5A02F52D0924B1A6822F433
:1009D80080321A601A6822F480221A606368002B39
:1009E80050D000F0C1FC05468A4B1B6813F4003F49
:1009F80014D100F0B9FC401B6428F5D90320B3E1F9
:100A0800844B5B6813F4800FD8D0824B1B6813F4B7
:100A1800003F03D06368002B00F0A181236813F026
:100A2800020F54D07B4B9B6813F00C0F3ED0794BD0
:100A38009B6803F00C03082B33D0E368002B68D0C5
:100A4800754B01221A6000F08FFC0546714B1B683C
:100A580013F0020F54D100F087FC401B0228F5D98F
:100A6800032081E16B4A136843F480331360B5E7D0
:100A7800684B1A6842F480221A601A6842F480327D
:100A88001A60ABE700F070FC0546624B1B6813F474
:100A9800003FC3D000F068FC401B6428F5D9032050
:100AA80062E15C4B5B6813F4800FC6D1594B1B683D
:100AB80013F0020F03D0E368012B40F05281554A2E
:100AC800136823F0F803216943EAC103136023681C
:100AD80013F0080F42D063696BB34F4B0122C3F880
:100AE800802E00F041FC05464A4B5B6F13F0020F65
:100AF80034D100F039FC401B0228F5D9032033E13A
:100B0800444A136823F0F803216943EAC1031360D8
:100B1800DDE7414B00221A6000F026FC05463D4BFC
:100B28001B6813F0020FD2D000F01EFC401B0228F5
:100B3800F5D9032018E1384B0022C3F8802E00F0C5
:100B480013FC0546334B5B6F13F0020F06D000F021
:100B58000BFC401B0228F5D9032005E1236813F09C
:100B6800040F79D02B4B1B6C13F0805F34D100231A
:100B78000193284B1A6C42F080521A641B6C03F0E4
:100B880080530193019B01231E46244B1B6813F4D9
:100B9800807F24D0A368012B35D0052B40D01D4B76
:100BA8001A6F22F001021A671A6F22F004021A67FC
:100BB800A368002B3ED000F0D7FB0546154B1B6FF2
:100BC80013F0020F47D100F0CFFB401B41F28833EE
:100BD8009842F3D90320C7E000231E46D5E70F4A01
:100BE800136843F48073136000F0BEFB05460B4B9B
:100BF8001B6813F4807FCDD100F0B6FB401B0228A0
:100C0800F5D90320B0E0034A136F43F001031367DB
:100C1800CEE700BF003802400000474200700040A5
:100C2800584B1A6F42F004021A671A6F42F0010219
:100C38001A67BDE700F098FB0546524B1B6F13F08F
:100C4800020F08D000F090FB401B41F28833984215
:100C5800F3D9032088E0EEB9A369002B00F0838064
:100C6800484A926802F00C02082A51D0022B17D089
:100C7800454B00221A6600F077FB0446414B1B687F
:100C880013F0007F42D000F06FFB001B0228F5D95B
:100C9800032069E03B4A136C23F080531364DBE7BD
:100CA800394B00221A6600F05FFB0546354B1B687E
:100CB80013F0007F06D000F057FB401B0228F5D93F
:100CC800032051E0E369226A1343626A43EA82130C
:100CD800A26A5208013A43EA0243E26A43EA02631B
:100CE800284A5360284B01221A6600F03DFB04464F
:100CF800244B1B6813F0007F06D100F035FB001B66
:100D08000228F5D903202FE000202DE000202BE059
:100D1800012B2BD01B4B5B6803F48001E2699142E5
:100D280026D103F03F02216A8A4223D1616A47F63D
:100D3800C0721A40B2EB811F1ED103F44031A26A7F
:100D48005208013AB1EB024F18D103F07063E26A1E
:100D5800B3EB026F14D1002006E001207047012098
:100D680002E0012000E0184602B070BD0120FBE758
:100D78000120F9E70120F7E70120F5E70120F3E773
:100D88000120F1E7003802400000474208B5264B31
:100D98009B6803F00C03042B41D0082B41D1224B54
:100DA8005A6802F03F025B6813F4800F12D01E4BA2
:100DB8005968C1F388111D480023A1FB0001FFF702
:100DC8002BFA194B5B68C3F3014301335B00B0FB9B
:100DD800F3F008BD144B5868C0F388104FEA401C64
:100DE800BCEB000C6EEB0E0E4FEA8E1343EA9C63CD
:100DF8004FEA8C11B1EB0C0163EB0E03DB0043EA05
:100E08005173C90011EB000C43F100039902002350
:100E18004FEA8C2041EA9C51FFF7FEF9D1E70348DD
:100E2800D7E70348D5E700BF0038024040787D0186
:100E38000024F400002800F09B8070B50D4604469D
:100E48004F4B1B6803F007038B4208D2CBB24C4AC6
:100E58001370136803F007038B4240F08B802368FC
:100E680013F0020F17D013F0040F04D0454A93680B
:100E780043F4E0539360236813F0080F04D0414A09
:100E8800936843F4604393603E4A936823F0F00309
:100E9800A1680B439360236813F0010F32D0636895
:100EA800012B21D09A1E012A25D9364A126812F040
:100EB800020F61D033498A6822F0030213438B6022
:100EC80000F052FA06462F4B9B6803F00C03626849
:100ED800B3EB820F16D000F047FA801B41F288333B
:100EE8009842F0D9032042E0264A126812F4003FE3
:100EF800E0D101203BE0234A126812F0007FD9D1EB
:100F0800012034E01E4B1B6803F00703AB4207D9EE
:100F1800EAB21B4B1A701B6803F00703AB422DD1D2
:100F2800236813F0040F06D0164A936823F4E0539D
:100F3800E1680B439360236813F0080F07D0114A48
:100F4800936823F46043216943EAC1039360FFF780
:100F58001DFF0C4B9B68C3F303130B4AD35CD840AB
:100F68000A4B18600A4B186800F0B2F9002070BDEF
:100F7800012070470120FAE70120F8E70120F6E791
:100F8800003C024000380240881800080800002091
:100F980004000020014B1868704700BF08000020BB
:100FA80008B5FFF7F7FF044B9B68C3F38223034A96
:100FB800D35CD84008BD00BF003802408018000844
:100FC80008B5FFF7E7FF044B9B68C3F34233034AB6
:100FD800D35CD84008BD00BF003802408018000824
:100FE80070B582B08E46002369E085684FEA430CED
:100FF800032101FA0CF125EA0105DEF80C1001FACB
:101008000CF129438160416821EA0201DEF80420DD
:10101800C2F300129A400A43426065E0D9080831D9
:1010280050F8212003F00705AD004FF00F0C0CFA23
:1010380005FC22EA0C0CDEF81020AA4042EA0C0259
:1010480040F8212067E0072200E0002202FA0CF2B3
:101058002A430231604D45F82120604A9168E243F5
:1010680021EA0405DEF8046016F4801F01D044EA82
:1010780001055A498D60C96802EA0105DEF8046075
:1010880016F4001F01D044EA01055449CD604968AF
:1010980002EA0105DEF8046016F4003F01D044EAD4
:1010A80001054E494D6009680A40DEF8045015F400
:1010B800803F01D044EA010248490A6001330F2BFE
:1010C80000F2878001229A40DEF8001001EA02044B
:1010D80032EA0101F2D1DEF8041001F0030C0CF140
:1010E800FF3CBCF1010F80D9DEF8042002F00302B6
:1010F800032A0AD0C1685D000322AA4021EA02013E
:10110800DEF80820AA400A43C260DEF8042002F094
:101118000302022A82D001684FEA430C032202FA32
:101128000CF221EA0201DEF8042002F0030202FABE
:101138000CF20A430260DEF8042012F4403FBDD0EE
:1011480000220192264A516C41F480415164526C4C
:1011580002F480420192019A99088D1C1E4A52F8A5
:10116800255003F0030C4FEA8C0C0F2202FA0CF204
:1011780025EA02051B4A90423FF467AF02F58062F8
:1011880090421AD002F58062904218D002F580622F
:10119800904216D002F58062904214D002F5806227
:1011A800904212D002F58062904210D002F580621F
:1011B80090423FF448AF082248E7012246E702225E
:1011C80044E7032242E7042240E705223EE70622DD
:1011D8003CE702B070BD00BF00380140003C014050
:1011E80000380240000002400AB1816170470904DA
:1011F80081617047002808DB0901C9B200F160402D
:1012080000F5614080F80013704700F00F000901F5
:10121800C9B2014B1954704714ED00E000B500F055
:101228000700A0F1030CBCF1040F07D8C0F1070EAA
:101238000430062806D84FF0000C03E04FF0040EE7
:101248004FF0000C4FF0FF3303FA0EF021EA0001D3
:1012580001FA0CF103FA0CF322EA030241EA020054
:1012680000BD0000074AD36823F4E0631B041B0C8D
:10127800000200F4E060034343F0BF6343F400332B
:10128800D360704700ED00E010B50446054BD86800
:10129800C0F30220FFF7C2FF01462046FFF7AAFF6E
:1012A80010BD00BF00ED00E00138B0F1807F0BD227
:1012B8004FF0E0235861054AF02182F823100020FE
:1012C800986107221A6170470120704700ED00E01D
:1012D80010B504460E4B18680E4B1A784FF47A7303
:1012E800B3FBF2F3B0FBF3F0FFF7DEFF68B90F2CA6
:1012F80001D901200AE0024621464FF0FF30FFF7EE
:10130800C3FF054B1C60002000E0012010BD00BF9A
:1013180008000020000000200400002008B50B4B46
:101328001A6842F400721A601A6842F480621A60FD
:101338001A6842F480721A600320FFF793FF0F20A7
:10134800FFF7C6FFFFF770FA002008BD003C024017
:10135800034A1168034B1B780B441360704700BFA6
:101368005001002000000020014B1868704700BFA2
:101378005001002038B50446FFF7F6FF0546B4F1E2
:10138800FF3F02D0044B1B781C44FFF7EDFF401BC6
:10139800A042FAD338BD00BF00000020034AD2F8AB
:1013A800883043F47003C2F88830704700ED00E0DD
:1013B800026802F10C0353E8003F23F490730C32E7
:1013C80042E800310029F3D1026802F1140353E81E
:1013D800003F23F00103143242E800310029F3D121
:1013E800036B012B05D0202380F8423000230363D0
:1013F8007047026802F10C0353E8003F23F0100322
:101408000C3242E800310029F3D1ECE710B504466C
:101418000268136923F44053C1680B43136183685E
:1014280002691A4343691A43C3691A430168CB68BE
:1014380023F4164323F00C031343CB60026853696B
:1014480023F4407381690B4353610368314A934223
:1014580006D002F58062934202D0FFF7A1FD01E0B9
:10146800FFF7AEFDE369B3F5004F29D0002103185B
:1014780049411B1841F10001C90041EA5371DB00E1
:10148800181863684FEA83024FEA937341F1000129
:10149800FEF7C2FE204AA2FB00314909642303FB80
:1014A80011031B013233A2FB03235B0903F0F00293
:1014B80002EB011203F00F03216813448B6010BD87
:1014C8000023021843EB0301121841F10001C9007F
:1014D80041EA5271D200101841F100016268921875
:1014E8005B41FEF799FE0C4AA2FB003149096423CF
:1014F80003FB1103DB003233A2FB03235B095A0011
:1015080002F4F87202EB011203F007032168134496
:101518008B60D4E7001001401F85EB512DE9F041A5
:1015280082B004460D4616469846089F23681B68F5
:1015380035EA03030CBF4FF0010C4FF0000CB44523
:1015480026D1B7F1FF3FF1D0FFF70EFF4346C01A8F
:10155800B84221D817B32368DA6812F0040FE5D02F
:10156800802DE3D0402DE1D01A6812F0080FDDD0AD
:10157800002501951A6801925B680193019B20463A
:10158800FFF716FF0823636484F84050012000E049
:10159800002002B0BDE8F0810320FAE70320F8E755
:1015A80060B310B5044690F8413013B3242384F88F
:1015B80041302268D36823F40053D3602046FFF7F4
:1015C80025FF2268136923F4904313612268536945
:1015D80023F02A0353612268D36843F40053D3608D
:1015E80000206064202384F8413084F8423060632E
:1015F80010BD80F84030FFF769F9D7E70120704740
:101608002DE9F04184B01E4690F84130202B57D187
:1016180004460D46002957D003920AB9012050E02C
:1016280000234364212380F84130FFF79DFE0746DD
:10163800039BA384E384A368B3F5805F02D00023EF
:10164800984616E023693BB30023984611E020230F
:1016580084F84130032034E0424632F8023B904699
:101668002268C3F308035360E28C92B2013A92B243
:10167800E284E38C9BB293B100963B460022802122
:101688002046FFF74BFF0028E1D1002DE4D015F8E4
:10169800012B23685A60E7E7A8461D46E9E700964C
:1016A8003B46002240212046FFF738FF18B9202387
:1016B80084F8413005E0202384F84130032000E01D
:1016C800022004B0BDE8F0810120FAE700285AD0D2
:1016D80010B50446436A33B94368B3F5827F05D031
:1016E8000023C36102E00023036143610023A36276
:1016F80094F85130002B40D0022384F851302268EE
:10170800136823F040031360636803F48273A268CC
:1017180002F404421343E26802F4006213432269AC
:1017280002F002021343626902F001021343A26944
:1017380002F400721343E26902F038021343226A8A
:1017480002F080021343A26A02F400522168134394
:101758000B60638B03F00403626A02F010022168D5
:1017680013434B602268D36923F40063D3610020DC
:101778006065012384F8513010BD84F8503020464C
:10178800FFF76EF8B8E7012070470000DFF834D0A3
:10179800FFF704FE0C480D490D4A002302E0D45817
:1017A800C4500433C4188C42F9D30A4A0A4C0023A3
:1017B80001E013600432A242FBD300F019F8FEF7EF
:1017C800EDFF704700000220000000200C00002000
:1017D800A81800080C00002054010020FEE702446D
:1017E8000346934200D1704703F8011BF9E7000054
:1017F80070B50D4B0D4C00261D1BB6EBA50F09D17E
:1018080000F01AF80A4C0B4B00261D1BB6EBA50F6F
:1018180005D170BD54F8043B98470136EDE754F8FC
:10182800043B98470136F1E7A0180008A018000803
:10183800A0180008A4180008F8B500BFF8BC08BC38
:101848009E467047F8B500BFF8BC08BC9E46704776
:1018580044455054483A31322E352C4844473A32A0
:1018680037302C4241543A31312E382C54454D50A2
:101878003A33352E320D0A0000000000010203043D
:101888000000000000000000010203040607080928
:0818980078E9FF7F0100000068
:0418A000F10100084A
:0418A400C90100086E
:0C18A80001000000100000000024F4000B
:040000050800179543
:00000001FF
